:100000000C942A000C943C000C943C000C943C0092
:100010000C943C000C943C000C943C000C943C0070
:100020000C943C000C943C000C943C000C9462003A
:100030000C943C000C943C000C943C000C943C0050
:100040000C943C000C943C000C943C000C943C0040
:100050000C943C0011241FBECFE5D8E0DEBFCDBF1D
:1000600020E0A0E6B0E001C01D92A638B207E1F79B
:100070000E948D000C9461020C940000CF93DF93DA
:10008000CDB7DEB787B3816087BB98B381E089279E
:1000900088BB84EF91E00E94AF010E947E01F5CF02
:1000A000CF93DF93CDB7DEB784B3816084BB95B3C4
:1000B00081E0892785BB88EE93E00E94AF010E9412
:1000C0007E01F5CF1F920F920FB60F9211242F933E
:1000D0003F934F935F936F937F938F939F93AF93D0
:1000E000BF93EF93FF930E94FD01FF91EF91BF91AA
:1000F000AF919F918F917F916F915F914F913F91C0
:100100002F910F900FBE0F901F90189583E083BF23
:1001100012BE89B7816089BF0895CF93DF93CDB7B1
:10012000DEB70E94EC010E94860078946EE370E0D6
:1001300080E00E94200260E570E081E00E942002E1
:10014000809183008F7E80938300809183008860FC
:100150008093830088E0809362008091600090919A
:10016000610090936A00809369008091690090918A
:100170006A008757904038F08BE690E090936A00D1
:100180008093690009C08091690090916A000C9683
:1001900090936A0080936900E0916900F0916A0091
:1001A0008081809384008091840086FF49C0809183
:1001B000840088230CF444C080918400877080936D
:1001C000630090916200891708F03AC08091840022
:1001D00083FD16C0CF93DF930E9457010E94520106
:1001E0006091840068728FB7F8947C91777D762B4C
:1001F0007C938FBFDF91CF918091830083FFA0CF4D
:100200008091840084FF04C08091840085FF18C021
:100210008091840083FF14C080918300806180936B
:1002200083008091690090916A00909367008093A9
:10023000660080918400877080936200882361F05B
:100240002091690030916A00809160009091610076
:100250002817390709F089CF8091830084FF70CF78
:1002600080918300877F80938300809166009091C6
:10027000670090936A008093690090936100809377
:100280006000E0916900F0916A00808180938400B1
:100290008091840086FF54CF8091840088230CF4E1
:1002A0004FCF98CFA0916900B0916A0008956DB7C3
:1002B000609364006EB7609365000E9452016D9177
:1002C000609384006D917D91CD91DD91D7FF02C047
:1002D000CDB7DEB79FB7F894CDBFDEBF9FBF6F939A
:1002E0007F936D91762F662341F089918D9189934B
:1002F0007A95E1F76395C61BD10908950E945201D2
:100300006D916F917F917D936D93CD93DD938091EE
:1003100084008860809384000C948E011C927091FC
:1003200064007C1B725041F0753030F47D9369910C
:1003300069916D937A95E1F7609164007091650021
:100340008FB7F8946DBF7EBF8FBF08956FB760936E
:100350006800F8940895609168006FBF0895CF9386
:10036000DF93EC010E94A601809184008F7D809331
:100370008400E0916900F0916A0080818F7E808323
:100380000E94AB01209729F1D195C195D109E09147
:100390006900F0916A00D387C2870E94A601E091AC
:1003A0006900F0916A00808188608083E091690033
:1003B000F0916A008081806180830E94AB0180910E
:1003C00084008061809384008091840088608093A1
:1003D0008400DF91CF91089510928300E7E7F0E069
:1003E000F0936100E0936000ABE6B0E08C918F7B0E
:1003F0008C9380818F7B8083089580916B0084FF34
:100400000CC0EBE6F0E082859385019693878287A6
:10041000892B19F480818F7E80838091770084FFFF
:100420000EC0EBE6F0E0868997890196978B868B64
:10043000892B29F4E7E7F0E080818F7E808308959F
:10044000CF93DF931F92CDB7DEB78983809183006E
:100450008D7F8093830010926300EBE6F0E0808153
:1004600086FD1EC089818064886089837283618370
:100470001386128680838091690090916A00E81744
:10048000F90719F489818093840080E090E89483CF
:1004900083831582809183008D7F809383000DC0BC
:1004A0003C96809163008F5F809363008230B8F246
:1004B000809183008260809383000F90DF91CF91C1
:0604C0000895F894FFCF3F
:00000001FF
